:020000040800F2
:10000000A8070020050C0008AD030008AF03000896
:10001000B3030008B7030008BB030008000000009A
:10002000000000000000000000000000BF03000806
:10003000C103000800000000C3030008C503000856
:100040001F0C00081F0C00081F0C00081F0C0008E4
:100050001F0C00081F0C00081F0C00081F0C0008D4
:100060001F0C00081F0C00081F0C00081F0C0008C4
:100070001F0C00081F0C00081F0C00081F0C0008B4
:100080001F0C00081F0C00081F0C00081F0C0008A4
:100090001F0C00081F0C00081F0C00081F0C000894
:1000A0001F0C00081F0C00081F0C00081F0C000884
:1000B0001F0C00081F0C00081F0C00081F0C000874
:1000C0001F0C00081F0C00081F0C00081F0C000864
:1000D0001F0C00087B0B00081F0C00081F0C0008F9
:1000E0001F0C00081F0C00081F0C00081F0C000844
:1000F0001F0C00081F0C00081F0C00081F0C000834
:100100001F0C00081F0C00081F0C00081F0C000823
:100110001F0C00081F0C00081F0C00081F0C000813
:100120001F0C00081F0C00081F0C00081F0C000803
:1001300000F002F800F03FF80AA090E8000C8244BA
:100140008344AAF10107DA4501D100F034F8AFF297
:10015000090EBAE80F0013F0010F18BFFB1A43F0A5
:1001600001031847501C0000701C0000103A24BF07
:1001700078C878C1FAD8520724BF30C830C144BF0C
:1001800004680C607047000000230024002500264E
:10019000103A28BF78C1FBD8520728BF30C148BFEA
:1001A0000B607047642901F00785002070471FB578
:1001B0001FBD10B510BD01F0C7FD1146FFF7F7FFD9
:1001C00000F008F801F0E5FD03B4FFF7F2FF03BC0F
:1001D00000F078FC00F00CFC4FF4E13000F081FC02
:1001E000012000F0A0FA00BF00F032FB0028FBD194
:1001F0004148007840F001003F49087002203F4923
:10020000087001213D4800F0DEFB00BF3C4800F0D3
:100210008DFB30B93848007840F00200364908704C
:1002200006E03548007800F0FD0033490870EDE73E
:1002300000BF5FE0072000F037FB32490870084636
:10024000007800F04000002847D0602000F02CFB30
:100250000446002C3EDD212C3CDA2A48007800F0D0
:100260004001272000F024FA22462549612000F0B1
:10027000D3FA172000F018FB2249087002211F480A
:1002800000F0A1FB214620A001F056FC1C4801789B
:1002900024A001F051FC1A48417827A001F04CFC41
:1002A0001748817829A001F047FC1548C1782CA097
:1002B00001F042FC124801792EA001F03DFC1048EB
:1002C000417931A001F038FC0D48817933A001F06B
:1002D00033FC01E000F0FFF900BF2021324801F0BB
:1002E000CFFB38B12020054908702F4801F05EFB94
:1002F000024948709EE70000040000205C000020D6
:100300003C000020000000200D0ABDD3CAD5B5BDB9
:10031000B5C4CAFDBEDDB3A4B6C8CEAAA3BA202513
:10032000640D0A005354415455535F4441544120D5
:100330003D2025640D0A0000466C795F50756C7392
:1003400065203D2025640D0A00000000436C696DA6
:10035000625F50756C7365203D2025640D0A0000B6
:1003600050697463685F50756C7365203D20256427
:100370000D0A0000526F6C6C5F50756C7365203D08
:100380002025640D0A0000005961775F50756C7379
:1003900065203D2025640D0A00000000746573741B
:1003A000203D2025640D0A0000380140704700BF41
:1003B000FEE700BFFEE700BFFEE700BFFEE77047B5
:1003C00070477047704700000CB500200190009006
:1003D0006C48006840F480306A49086000BF694892
:1003E000006800F4003000900198401C01900098D3
:1003F00018B90198B0F5A06FF1D16248006800F417
:10040000003010B10120009001E000200090009821
:10041000012843D15C48006840F010005A49086048
:100420000846006820F0030008600846006840F0B5
:1004300002000860534840685249486008464068D6
:1004400048600846406840F480604860084640685C
:1004500020F47C1048600846406840F4E81048608A
:100460000846006840F08070086000BF454800689A
:1004700000F000700028F9D04248406820F00300E6
:10048000404948600846406840F00200486000BFAC
:100490003C48406800F00C000828F9D10CBD10B5AC
:1004A000FFF792FF10BD10B53648006840F001001C
:1004B000344908600846406834490840314948607A
:1004C00008460068324908402E490860084600681E
:1004D00020F4802008600846406820F4FE00486050
:1004E0004FF41F008860FFF7DAFF4FF000602949E2
:1004F000086010BD10B5002100200022214B5B6870
:1005000003F00C0121B1042906D0082928D107E005
:10051000214B224C236027E01F4B204C236023E01B
:10052000184B5B6803F47010164B5B6803F4803261
:10053000022303EB904022B9194B4343174C23602D
:100540000DE0104B5B6803F4003323B1144B4343BD
:10055000124C236003E0104B4343104C236003E034
:100560000D4B0E4C236000BF00BF064B5B68C3F30E
:1005700003130C4CE15C094B1B68CB40074C236018
:1005800010BD000000100240002002400000FFF8F3
:10059000FFFFF6FE08ED00E000127A0008000020E0
:1005A00000093D000C00002070B50546002405E060
:1005B000601CC4B2C82C01DD002070BD02213A4885
:1005C00001F07DF80028F3D02946374801F024F8DF
:1005D000002405E0601CC4B2C82C01DD0020ECE75B
:1005E0000121314801F06BF80028F3D02E4801F0CA
:1005F00015F8C0B2E1E700B587B00121082000F08E
:10060000ABFE0121880300F0B4FE4FF46040ADF86A
:10061000180018208DF81B0003208DF81A0006A979
:10062000224800F0DDFB4FF46041204800F085FCDB
:100630000020ADF804004FF48270ADF806000020F1
:10064000ADF808000220ADF80A000120ADF80C005A
:100650004002ADF80E003820ADF810000020ADF8D3
:1006600012000720ADF8140001A90F4800F0FEFEAB
:1006700001210D4800F09FFFFF20FFF795FF07B015
:1006800000BD10B50446084800884FF6C771084001
:100690000549088008460088204308800121024857
:1006A00000F089FF10BD000000380040000C014040
:1006B00070B505460C460020C74908602846FFF77C
:1006C00073FF06462046FFF76FFF0120C349C1F8BC
:1006D0009C01304670BD10B5FF21E220FFF7E8FF16
:1006E00010BD10B5FF21E120FFF7E2FF10BD2DE99D
:1006F000F04107460C4615460020B74908603846C9
:10070000FFF752FF8046002605E014F8010BFFF7C3
:100710004BFF701CC6B2AE42F7DB0120AE49086049
:100720004046BDE8F08138B5044601214FF484709D
:1007300000F012FE4FF48050ADF8000010208DF84C
:10074000030003208DF802006946A54800F048FB2D
:100750004FF48051A24800F0F0FB4FF4C070ADF8A8
:10076000000010208DF8030003208DF80200694678
:100770009C4800F035FB4020ADF8000048208DF883
:10078000030003208DF802006946964800F028FB1C
:100790004FF4E071934800F0D0FBFFF72CFF1020DE
:1007A000FFF76FFF01212120FFF782FF06213D2087
:1007B000FFF77EFF01213C20FFF77AFF0121222075
:1007C000FFF776FF05212320FFF772FF1F2124206A
:1007D000FFF76EFF28212520FFF76AFF2621084634
:1007E000FFF766FF052280492A20FFF780FF0522D8
:1007F0007E493020FFF77BFFFFF773FFFFF76BFFAA
:10080000012C03D10B212020FFF752FF1CB90A2134
:100810002020FFF74DFF38BD2DE9F04107460D467A
:10082000164600206C4908603846FFF7BDFE80463A
:10083000002405E0FF20FFF7B7FE2855601CC4B276
:10084000B442F7DB0120644908604046BDE8F0810E
:100850001CB5002405E06548005D0DF80400601C2F
:10086000C4B2052CF7DB1020FFF70BFF0522694609
:100870003020FFF73CFF052269461020FFF7CCFF30
:10088000002408E01DF804005849095D884200D0A2
:1008900003E0601CC4B2052CF4DB00BF052C01D0C2
:1008A00001201CBD0020FCE770B5044600204A4929
:1008B00008602046FFF778FEFF20FFF775FE05462B
:1008C00001204649C1F89C01284670BD70B5054617
:1008D00000204149091D086020222946A020FFF779
:1008E00006FF01203D49C1F8A00100BF3A48843805
:1008F00000680028FAD10720FFF7D6FF044602203F
:1009000000F0B3F821462720FFF7D2FE04F01000D4
:1009100028B1FF21E120FFF7CBFE102070BD04F0CD
:10092000200008B12020F9E7FF20F7E770B5054661
:100930000720FFF7B9FF044604F0400068B1202209
:1009400029466120FFF768FFFFF7C5FE04F040016C
:100950002720FFF7ADFE002070BD04F0100030B17D
:10096000FFF7BFFE04F010012720FFF7A1FE0120D2
:10097000F2E710B50020FFF797FF044604F0FD01F1
:100980002020FFF795FE10BD70B505460020FFF74B
:100990008BFF044604F00100A84213D004F0FD01CF
:1009A0002020FFF785FE052000F05FF815B924F040
:1009B000010403E0012D01D144F00104214620206F
:1009C000FFF776FE70BD70B504460D462A462146F7
:1009D000A820FFF78CFE70BD9C0124420000244239
:1009E000000C014000200140AD1D0008A81D0008BA
:1009F00010B56FF0040000F074F92E4800682E491D
:100A0000B0FBF1F02D4908700846007800EB40017A
:100A1000C1EBC0104FF6FF7101EAC0002849088001
:100A200010BD0146254A12784A434FF0E0235A612F
:100A300000229A611A46126942F001021A6100BF4F
:100A40004FF0E022106900F001021AB100F4803288
:100A5000002AF5D04FF0E022126922F001024FF097
:100A6000E0231A6100229A6170470146144A1288F5
:100A70004A434FF0E0235A6100229A611A461269F4
:100A800042F001021A6100BF4FF0E022106900F04D
:100A900001021AB100F48032002AF5D04FF0E022B2
:100AA000126922F001024FF0E0231A6100229A61DC
:100AB000704700000800002000127A001C0000208F
:100AC0001E000020014600BF704700BF494A12883F
:100AD00002F04002002AF9D0C2B2464B1B1D1A8018
:100AE000704710B586B00446012144F2040000F0BE
:100AF00033FC4FF40070ADF8140003208DF816009D
:100B000018208DF8170005A93B4800F069F94FF44B
:100B10008060ADF8140004208DF8170005A9364850
:100B200000F05EF925208DF8000003208DF801000B
:100B30008DF8020001208DF80300684600F087F868
:100B400001940020ADF80800ADF80A00ADF80C00E3
:100B5000ADF810000C20ADF80E0001A9254800F0FA
:100B600028FE012240F22551224800F0BAFE012160
:100B7000204800F0AAFE06B010BD10B540F2255185
:100B80001C4800F093FF10B31A4800F00FFFC4B2E6
:100B90001A48008800F40040C8B91848008800F4DA
:100BA000804060B10A2C03D000201449088020E066
:100BB0001248008840F400401049088019E00D2CCC
:100BC00006D10E48008840F480400C49088010E0AF
:100BD0000A480088C0F30D0009490C5407480088F2
:100BE000401C0649088008460088C72801DD00200F
:100BF000088010BD0038014000080140240000209A
:100C00007C0000200948804709480047FEE7FEE7CE
:100C1000FEE7FEE7FEE7FEE7FEE7FEE7FEE7FEE7AC
:100C200004480549054A064B70470000A704000820
:100C300031010008A8010020A8070020A803002017
:100C4000A803002031490143314A1160704770B553
:100C5000002100230F22C47804B32D4C246804F42F
:100C6000E064C4F5E064210AC1F10403CA40447899
:100C700004FA03F18478144021430901254C0678D5
:100C8000A155047804F01F050124AC4005786D11CE
:100C9000AD0005F1E025C5F8004109E0047804F055
:100CA0001F050124AC401C4D0678761145F82640FE
:100CB00070BD1A4A0A400243154B1B1F1A60704749
:100CC00039B1134A121D12680243114B1B1D1A60E1
:100CD00006E00F4A121D126882430D4B1B1D1A605D
:100CE0007047042808D14FF0E021096941F0040160
:100CF0004FF0E022116107E04FF0E021096921F097
:100D000004014FF0E0221161704700000000FA0575
:100D10000CED00E000E400E080E100E080FFFF1F58
:100D200010B50446CC48844208D10121042000F0CB
:100D30002DFB0021042000F029FB46E0C748844237
:100D400008D10121082000F021FB0021082000F03B
:100D50001DFB3AE0C248844208D10121102000F076
:100D600015FB0021102000F011FB2EE0BD4884424D
:100D700008D10121202000F009FB0021202000F0F3
:100D800005FB22E0B848844208D10121402000F050
:100D9000FDFA0021402000F0F9FA16E0B348844241
:100DA00008D10121802000F0F1FA0021802000F01C
:100DB000EDFA0AE0AE48844207D10121801500F027
:100DC000E5FA0021A01500F0E1FA10BD10B50121EF
:100DD000084600F0DBFA0021012000F0D7FA10BD30
:100DE0002DE9F041024600250026002000230024C2
:100DF000002791F803C00CF00F0591F803C00CF028
:100E0000100CBCF1000F03D091F802C04CEA0505AC
:100E100091F800C0BCF1000F31D0146800202BE025
:100E20004FF0010C0CFA00F3B1F800C00CEA030615
:100E30009E4220D183004FF00F0C0CFA03F7BC4305
:100E400005FA03FC4CEA040491F803C0BCF1280F36
:100E500006D14FF0010C0CFA00FCC2F814C00AE0F5
:100E600091F803C0BCF1480F05D14FF0010C0CFA0A
:100E700000FCC2F810C0401C0828D1D31460B1F89F
:100E800000C0BCF1FF0F34DD546800202EE000F1FB
:100E9000080C4FF0010808FA0CF3B1F800C00CEA96
:100EA00003069E4221D183004FF00F0C0CFA03F78A
:100EB000BC4305FA03FC4CEA040491F803C0BCF1FE
:100EC000280F05D100F1080C08FA0CF8C2F81480BC
:100ED00091F803C0BCF1480F07D100F1080C4FF0A6
:100EE000010808FA0CF8C2F81080401C0828CED37C
:100EF0005460BDE8F0814FF6FF71018002218170DE
:100F00000421C17070470246002093680B400BB16A
:100F1000012000E0002070470146886880B27047D9
:100F200002460020D3680B400BB1012000E00020F6
:100F300070470146C86880B27047016170474161DF
:100F400070470AB1016100E041617047C1607047BC
:100F50004FF480320A4382618161826182698269D1
:100F6000704702460020434B18684FF680731840C4
:100F700040EA021008433F4B186070473E49C86181
:100F80007047F0B50A46002300240021002500F038
:100F90000046B6F1004F02D1364EF16901E0354E00
:100FA0007168C0F3034583B200F44016B6F5401FE4
:100FB00008D121F070612F4E766826F070662D4FB3
:100FC0007E6012E000F48016B6F5801F06D103267D
:100FD00006FA05F4A14341F0706106E0460D3601C2
:100FE00003FA06F6B14341F0706122B1460D3601B5
:100FF00003FA06F6314300F00046B6F1004F02D185
:101000001C4EF16101E01B4E7160F0BD30B5002255
:101010008B071C0F0F2303FA04F2164B08338C10B6
:1010200053F824309343134C08348D1044F8253082
:1010300023468C1053F824308C07240F00FA04F454
:1010400023430C4C08348D1044F8253030BD0A4938
:10105000DC3108607047000000080140000C0140CE
:10106000001001400014014000180140001C014024
:10107000002001400000014000002042DF480068DD
:1010800040F00100DD49086008464068DC4908403E
:10109000DA49486008460068DA490840D7490860DC
:1010A0000846006820F4802008600846406820F464
:1010B000FE0048604FF41F0088607047CF49096800
:1010C00021F48031CD4A11601146096821F4802154
:1010D0001160B0F5803F03D0B0F5802F0ED106E04F
:1010E000C649096841F48031C44A116007E0C34928
:1010F000096841F4A021C14A116000E000BF00BFAF
:10110000704710B501460022002300204A11012A31
:1011100002D1BA4C236806E0022A02D1B74C236AF6
:1011200001E0B64C636A01F01F02012494401C40A8
:101130000CB1012000E0002010BD38B50020009067
:101140000024002500BF3120FFF7DBFF0546009893
:10115000401C00900098B0F5A06F01D0002DF2D097
:101160003120FFF7CEFF08B1012400E00024204623
:1011700038BD01460020A14A106820F0F80040EA7E
:10118000C10010607047A049086070470246002007
:101190009A4B586820F47C1042EA01031843974B9D
:1011A0005860704798490866704701460020934A86
:1011B000506820F003000843506070478F48406833
:1011C00000F00C007047014600208C4A506820F067
:1011D000F00008435060704701460020874A50687D
:1011E00020F4E06008435060704701460020834AC5
:1011F000506820F4605040EAC1005060704729B147
:101200007E4A527A02437D4B5A7204E07B4A527AFC
:1012100082437A4B5A7270477B49D83108607047D5
:1012200001460020754A506820F440400843506051
:1012300070470021714A20321170704A82F82010E4
:10124000012802D004280AD104E001216B4A20328F
:10125000117005E00521694A2032117000E000BFDD
:1012600000BF70476949086070476449096A0143D3
:10127000624A11627047654944390860704730B569
:1012800000210022002400235C4D6D6805F00C0154
:1012900021B1042905D0082923D105E05C4D056062
:1012A00022E05B4D05601FE0544D6D6805F470123F
:1012B000524D6D6805F48034022505EB92421CB94D
:1012C000544D554305600BE04C4D6D6805F40035F9
:1012D0001DB1504D5543056002E04D4D554305602D
:1012E00002E04B4D056000BF00BF444D6D6805F046
:1012F000F0010909484D6B5C0568DD4045603F4DD4
:101300006D6805F4E061090A434D6B5C4568DD409A
:1013100085603A4D6D6805F46051C90A3E4D6B5CBD
:101320004568DD40C560354D6D6805F44041890B69
:101330003A4D6B5CC568B5FBF3F5056130BD29B16D
:101340002E4A526902432D4B5A6104E02B4A5269DE
:1013500082432A4B5A61704729B1284A9269024355
:10136000264B9A6104E0254A92698243234B9A6195
:10137000704729B1214AD2690243204BDA6104E067
:101380001E4AD26982431D4BDA61704729B11B4A5C
:10139000D2680243194BDA6004E0184AD2688243EB
:1013A000164BDA60704729B1144A12690243134B95
:1013B0001A6104E0114A12698243104B1A617047A6
:1013C00012494039086070470F49C86470470B499B
:1013D000C87170470948406A40F080700749486208
:1013E000704701460020054A92680A400AB1012070
:1013F00000E00020704701498872704700100240E9
:101400000000FFF8FFFFF6FE000042428004424267
:1014100000127A0000093D0026000020360000205E
:1014200010B50446BE48844208D101218014FFF75C
:10143000ADFF0021A014FFF7A9FF16E0B9488442D0
:1014400008D101210014FFF7AEFF00212014FFF79F
:10145000AAFF0AE0B448844207D10121C013FFF774
:10146000A2FF0021E013FFF79EFF10BD10B5002280
:10147000028802F441520B884C8823438C88234312
:10148000CC8823430C8923434C8923438C892343F1
:10149000CC8923431A430280838B4FF2FF7423408D
:1014A00083830B8A038210BD2DE9F04F85B005467A
:1014B0000C464FF0000902274FF000084FF0010BD7
:1014C0000026B246A88B4FF240010840A8830220B4
:1014D0002884B5F81C90A068022801D100BF38E02C
:1014E000A08810B94FF0010B01E04FF0020B8D48BE
:1014F000854200D100E000BF6846FFF7C0FEDDF87E
:1015000000A0E088B0F5007F0AD14FEA1A2000EB76
:1015100080004000A168B0FBF1F0401D86B20BE0F6
:101520004FEA4B10BAFBF0F000EB80004000A168DE
:10153000B0FBF1F0401D86B20A20B6FBF0F606F0D3
:101540000108A6EB0800C0F34F074FF6FF7000EA52
:101550000828022F01DBFF2F02DD02274FF00008D1
:10156000E08840EA080038432884A088A18908431D
:10157000618808432188084340F4006040EA090973
:10158000A5F81C9005B0BDE8F08F002101804180D6
:101590008180C180018141818181C18107210182D6
:1015A00070470021018041808180C18002218160DB
:1015B00000218181704721B1028842F040020280FF
:1015C00004E002884FF6BF731A400280704721B1D1
:1015D000828B42F48062828304E0828B4FF6FF3379
:1015E0001A408283704730B5002400230C11012576
:1015F000A540ABB21AB185881D43858002E085887D
:101600009D43858030BD1AB183880B43838002E0FF
:1016100083888B4383807047818170470146888926
:1016200070474FF6FF62914204D0028842F4807204
:10163000028004E002884FF6FF631A400280704780
:1016400021B1828842F00402828004E082884FF651
:10165000FB731A408280704702884FF2FF731A4072
:10166000028002880A4302807047018841F4805159
:101670000180704721B1028842F40052028004E0E8
:1016800002884DF6FF731A40028070470246002020
:10169000012901D0108B00E0908A70470146088A2A
:1016A0007047B1F5804F04D1028842F48042028035
:1016B00004E002884BF6FF731A400280704702462E
:1016C000002013890B400BB1012000E0002070477F
:1016D000CA4302817047F0B502460020002400236F
:1016E000002501F00F070126BE40B4B20B11012600
:1016F0009E40B3B2968806EA03051689264016B1C5
:101700000DB1012000E00020F0BD10B5002201F075
:101710000F040123A3409AB2D343038110BD0000FC
:101720000030014000380040003C004010B5044645
:10173000FB48844209D101218803FFF727FE0021DD
:101740004FF48040FFF722FE32E0F648844209D190
:1017500001214804FFF727FE00214FF40030FFF776
:1017600022FE25E0F048844209D101218804FFF7D8
:101770001AFE00214FF48020FFF715FE18E0EB4819
:10178000844209D10121C804FFF70DFE00214FF466
:101790000020FFF708FE0BE0E548844208D1012154
:1017A0000805FFF700FE00214FF48010FFF7FBFD56
:1017B00010BD2DE9F04786B005460E460024A2462E
:1017C00000BFA1460027B08900B100BF2F462C8A78
:1017D0004CF6FF700440F08804432C82AC894EF62E
:1017E000F3100440B08831890843718908430443E9
:1017F000AC81AC8A4FF6FF400440B0890443AC8210
:1018000001A8FFF73CFDC648874202D1DDF810A0D1
:1018100001E0DDF80CA0A88900F4004040B10AEB1B
:10182000CA0000EB0A1031684900B0FBF1F807E08C
:101830000AEBCA0000EB0A1031688900B0FBF1F82E
:101840006420B8FBF0F004012009642101FB108939
:10185000A88900F4004040B1322000EBC900B0FB81
:10186000F1F000F00700044308E0322000EB09101B
:101870006421B0FBF1F000F00F0004432C8106B0AE
:10188000BDE8F0874FF41651016000218180C180CE
:1018900001810C21418100218181704710B50246F0
:1018A0000020108A4FF2FF0318400B884C88234316
:1018B0008C882343CC8823431843108210BD002119
:1018C000018041808180C180704721B1828942F4CA
:1018D0000052828104E082894DF6FF731A408281B2
:1018E0007047F0B50346002400260025002040F68E
:1018F0006A17B94200D100BF1846C1F3421401F083
:101900001F06012707FA06F5012C01D10C3004E06F
:10191000022C01D1103000E014301AB107682F43B7
:10192000076002E00768AF430760F0BD1AB1838A21
:101930000B43838202E0838A8B4383827047028A4F
:101940004FF6F0731A400282028A0A4302827047FD
:1019500082894FF2FF731A40828182890A43828111
:10196000704721B1828942F00202828104E08289BB
:101970004FF6FD731A4082817047028A4FF6DF737B
:101980001A400282028A0A430282704721B1028A07
:1019900042F48042028204E0028A4BF6FF731A404E
:1019A00002827047C1F3080282807047014688882E
:1019B000C0F308007047818941F0010181817047BF
:1019C000028BD2B20283028B42EA01220283704769
:1019D000028B02F47F420283028B0A430283704728
:1019E00021B1828A42F02002828204E0828A4FF68C
:1019F000DF731A408282704721B1828A42F010025E
:101A0000828204E0828A4FF6EF731A408282704726
:101A100021B1828A42F00802828204E0828A4FF673
:101A2000F7731A408282704721B1828942F40042E2
:101A3000828103E08289C2F30E028281704721B164
:101A4000828A42F40062828204E0828A4FF2FF734B
:101A50001A4082827047828A4FF6FB731A40828254
:101A6000828A0A438282704721B1828A42F002024E
:101A7000828204E0828A4FF6FD731A4082827047A8
:101A800002460020B1F5007F00D100BF13880B4053
:101A90000BB1012000E00020704701F40072B2F5A4
:101AA000007F00D100BFCA430280704770B5024674
:101AB000002400230025002040F66A16B14200D120
:101AC00000BFC1F3421501F01F03012606FA03F31C
:101AD000012D02D19689334006E0022D02D1168AEB
:101AE000334001E0968A33400C12012606FA04F4D2
:101AF0001688344013B10CB1012000E0002070BD05
:101B000010B50022002340F66A14A14200D100BFA4
:101B10000A1201249440A3B2DC43048010BD0000EB
:101B2000003801400044004000480040004C0040A4
:101B300000500040704700000FB4044910B503AADC
:101B4000029800F0D3F810BC5DF814FB20000020D0
:101B50002DE9F0410E460446002020622046E1684F
:101B6000884730B3252805D0D4E901219047206A61
:101B7000401CF2E7E168204600278847050018D09E
:101B8000A5F14100192802D820354FF400673246EC
:101B9000294620462760FEF705FB40B1012804D006
:101BA000F61D26F007060836D8E7361DD6E7284684
:101BB000DAE7206ABDE8F0812DE9F041064600240D
:101BC00010687529314616A510D0AFF300800028A3
:101BD00002DA404213A507E031688A0701D512A551
:101BE00002E0490704D511A5012401E0AFF300800C
:101BF00000210A2206F1240709E0B0FBF2FCB0FB49
:101C0000F2F302FB1C00303078541846491C0028BF
:101C1000F3D123462A463046BDE8F04100F00CB827
:101C2000000000002D0000002B000000200000003C
:101C300070477047704770472DE9F0470D46994649
:101C40009246044600F124080168880604D5E0693C
:101C500021F01001216000E00120A84201DD471BB6
:101C600000E00027A1697A1902EB0900081AA061B7
:101C70002078C00602D42046AFF30080002608E09A
:101C8000D4E901211AF806009047206A401C761C0E
:101C900020624E45F4DB2078C0060AD52046AFF31B
:101CA000008006E0D4E9012130209047206A401CE2
:101CB0002062381EA7F10107F4DC07E0D4E9012116
:101CC00018F805009047206A401C2062281EA5F1E4
:101CD0000105F3DC2046AFF300802078000602D532
:101CE0000220BDE8F0870120FBE70000074B70B53C
:101CF0000D467B4400F011F80446284600F020F819
:101D000010B14FF0FF3070BD204670BDD5EDFFFF24
:101D100001694A1C02610878704700B58FB0CDE9AF
:101D200001310021059105497944CDE9031011469F
:101D30006846FFF70DFF0FB000BD0000E5FFFFFF95
:101D4000007B00F080007047754600F029F8AE4631
:101D500005006946534620F00700854618B020B5B7
:101D6000FEF75EFFBDE820404FF000064FF0000791
:101D70004FF000084FF0000B21F00701AC46ACE833
:101D8000C009ACE8C009ACE8C009ACE8C0098D46A0
:101D900070470446AFF300802046FEF715FA0000B6
:101DA00000487047440100203443101001344310B0
:101DB00010010000D41D0008000000203C000000BD
:101DC0006C010008101E00083C0000206C07000099
:101DD000880100080000FF000000000000A24A0483
:101DE00000000000000000000102030406070809CB
:101DF00000000000000000000000000000000102E0
:101E0000030401020304060708090204060800008F
:0400000508000131BD
:00000001FF
